{
  "address": "0xCf7Ed3AccA5a467e9e704C703E8D87F634fB0Fc9",
  "abi": [
    {
      "inputs": [
        {
          "internalType": "address",
          "name": "vrfCoordinatorV2",
          "type": "address"
        },
        {
          "internalType": "bytes32",
          "name": "keyHash",
          "type": "bytes32"
        },
        {
          "internalType": "uint256",
          "name": "entranceFee",
          "type": "uint256"
        },
        {
          "internalType": "uint64",
          "name": "subscriptionId",
          "type": "uint64"
        },
        {
          "internalType": "uint32",
          "name": "callbackGasLimit",
          "type": "uint32"
        },
        {
          "internalType": "uint256",
          "name": "interval",
          "type": "uint256"
        }
      ],
      "stateMutability": "nonpayable",
      "type": "constructor"
    },
    {
      "inputs": [
        {
          "internalType": "address",
          "name": "have",
          "type": "address"
        },
        {
          "internalType": "address",
          "name": "want",
          "type": "address"
        }
      ],
      "name": "OnlyCoordinatorCanFulfill",
      "type": "error"
    },
    {
      "inputs": [],
      "name": "Raffle__NotEnoughETHEntered",
      "type": "error"
    },
    {
      "inputs": [],
      "name": "Raffle__NotOpen",
      "type": "error"
    },
    {
      "inputs": [
        {
          "internalType": "uint256",
          "name": "currentBalance",
          "type": "uint256"
        },
        {
          "internalType": "uint256",
          "name": "numPlayers",
          "type": "uint256"
        },
        {
          "internalType": "uint256",
          "name": "raffleState",
          "type": "uint256"
        }
      ],
      "name": "Raffle__NotUpKeepNeeded",
      "type": "error"
    },
    {
      "inputs": [],
      "name": "Raffle__TransferFailed",
      "type": "error"
    },
    {
      "anonymous": false,
      "inputs": [
        {
          "indexed": true,
          "internalType": "address",
          "name": "player",
          "type": "address"
        }
      ],
      "name": "RaffleEnter",
      "type": "event"
    },
    {
      "anonymous": false,
      "inputs": [
        {
          "indexed": true,
          "internalType": "uint256",
          "name": "requestId",
          "type": "uint256"
        }
      ],
      "name": "RequestRaffleWinner",
      "type": "event"
    },
    {
      "anonymous": false,
      "inputs": [
        {
          "indexed": true,
          "internalType": "address",
          "name": "winner",
          "type": "address"
        }
      ],
      "name": "WinnerPicked",
      "type": "event"
    },
    {
      "inputs": [
        {
          "internalType": "bytes",
          "name": "",
          "type": "bytes"
        }
      ],
      "name": "checkUpkeep",
      "outputs": [
        {
          "internalType": "bool",
          "name": "upkeepNeeded",
          "type": "bool"
        },
        {
          "internalType": "bytes",
          "name": "",
          "type": "bytes"
        }
      ],
      "stateMutability": "view",
      "type": "function"
    },
    {
      "inputs": [],
      "name": "enterRaffle",
      "outputs": [],
      "stateMutability": "payable",
      "type": "function"
    },
    {
      "inputs": [],
      "name": "getEntranceFee",
      "outputs": [
        {
          "internalType": "uint256",
          "name": "",
          "type": "uint256"
        }
      ],
      "stateMutability": "view",
      "type": "function"
    },
    {
      "inputs": [],
      "name": "getInterval",
      "outputs": [
        {
          "internalType": "uint256",
          "name": "",
          "type": "uint256"
        }
      ],
      "stateMutability": "view",
      "type": "function"
    },
    {
      "inputs": [],
      "name": "getLastTimeStamp",
      "outputs": [
        {
          "internalType": "uint256",
          "name": "",
          "type": "uint256"
        }
      ],
      "stateMutability": "view",
      "type": "function"
    },
    {
      "inputs": [],
      "name": "getNumWords",
      "outputs": [
        {
          "internalType": "uint256",
          "name": "",
          "type": "uint256"
        }
      ],
      "stateMutability": "pure",
      "type": "function"
    },
    {
      "inputs": [],
      "name": "getNumberOfPlayers",
      "outputs": [
        {
          "internalType": "uint256",
          "name": "",
          "type": "uint256"
        }
      ],
      "stateMutability": "view",
      "type": "function"
    },
    {
      "inputs": [
        {
          "internalType": "uint256",
          "name": "index",
          "type": "uint256"
        }
      ],
      "name": "getPlayer",
      "outputs": [
        {
          "internalType": "address",
          "name": "",
          "type": "address"
        }
      ],
      "stateMutability": "view",
      "type": "function"
    },
    {
      "inputs": [],
      "name": "getRaffleState",
      "outputs": [
        {
          "internalType": "enum Raffle.RaffleState",
          "name": "",
          "type": "uint8"
        }
      ],
      "stateMutability": "view",
      "type": "function"
    },
    {
      "inputs": [],
      "name": "getRecentWinner",
      "outputs": [
        {
          "internalType": "address",
          "name": "",
          "type": "address"
        }
      ],
      "stateMutability": "view",
      "type": "function"
    },
    {
      "inputs": [
        {
          "internalType": "bytes",
          "name": "",
          "type": "bytes"
        }
      ],
      "name": "performUpkeep",
      "outputs": [],
      "stateMutability": "nonpayable",
      "type": "function"
    },
    {
      "inputs": [
        {
          "internalType": "uint256",
          "name": "requestId",
          "type": "uint256"
        },
        {
          "internalType": "uint256[]",
          "name": "randomWords",
          "type": "uint256[]"
        }
      ],
      "name": "rawFulfillRandomWords",
      "outputs": [],
      "stateMutability": "nonpayable",
      "type": "function"
    }
  ],
  "transactionHash": "0x7de8dab672e18760eb62c8b703e2564994d3d36755343887c71cc9bc752d0704",
  "args": [
    "0x5FbDB2315678afecb367f032d93F642f64180aa3",
    "0xd89b2bf150e3b9e13446986e571fb9cab24b13cea0a43ea20a6049a85cc807cc",
    "10000000000000000",
    "1",
    "500000",
    "30"
  ],
  "numDeployments": 1,
  "solcInputHash": "f8ecc8ce76e668a2a2a129039fd0aa82",
  "bytecode": "0x6101606040523480156200001257600080fd5b50604051620018ec380380620018ec8339818101604052810190620000389190620001d1565b858073ffffffffffffffffffffffffffffffffffffffff1660808173ffffffffffffffffffffffffffffffffffffffff1660601b81525050508361012081815250508163ffffffff166101008163ffffffff1660e01b815250508460c081815250508267ffffffffffffffff1660e08167ffffffffffffffff1660c01b815250508573ffffffffffffffffffffffffffffffffffffffff1660a08173ffffffffffffffffffffffffffffffffffffffff1660601b815250506000600260006101000a81548160ff021916908360018111156200013d577f4e487b7100000000000000000000000000000000000000000000000000000000600052602160045260246000fd5b02179055508061014081815250504260038190555050505050505062000355565b6000815190506200016f81620002d3565b92915050565b6000815190506200018681620002ed565b92915050565b6000815190506200019d8162000307565b92915050565b600081519050620001b48162000321565b92915050565b600081519050620001cb816200033b565b92915050565b60008060008060008060c08789031215620001eb57600080fd5b6000620001fb89828a016200015e565b96505060206200020e89828a0162000175565b95505060406200022189828a016200018c565b94505060606200023489828a01620001ba565b93505060806200024789828a01620001a3565b92505060a06200025a89828a016200018c565b9150509295509295509295565b6000620002748262000285565b9050919050565b6000819050919050565b600073ffffffffffffffffffffffffffffffffffffffff82169050919050565b6000819050919050565b600063ffffffff82169050919050565b600067ffffffffffffffff82169050919050565b620002de8162000267565b8114620002ea57600080fd5b50565b620002f8816200027b565b81146200030457600080fd5b50565b6200031281620002a5565b81146200031e57600080fd5b50565b6200032c81620002af565b81146200033857600080fd5b50565b6200034681620002bf565b81146200035257600080fd5b50565b60805160601c60a05160601c60c05160e05160c01c6101005160e01c610120516101405161151b620003d16000396000818161088901526108eb0152600081816102b401526103b1015260006106ee015260006106cb015260006106aa0152600061066e0152600081816102f10152610345015261151b6000f3fe6080604052600436106100a75760003560e01c806353a2c19a1161006457806353a2c19a146101895780636e04ff0d146101b457806391ad27b4146101f2578063c1c244e81461021d578063e55ae4e814610248578063fd6673f514610285576100a7565b806309bc33a7146100ac578063115cbaf5146100d75780631fe543e3146101025780632cfcc5391461012b5780634585e33b14610135578063473f1ddc1461015e575b600080fd5b3480156100b857600080fd5b506100c16102b0565b6040516100ce919061116e565b60405180910390f35b3480156100e357600080fd5b506100ec6102d8565b6040516100f99190611153565b60405180910390f35b34801561010e57600080fd5b5061012960048036038101906101249190610f4f565b6102ef565b005b6101336103af565b005b34801561014157600080fd5b5061015c60048036038101906101579190610e77565b61056a565b005b34801561016a57600080fd5b506101736107b6565b604051610180919061108c565b60405180910390f35b34801561019557600080fd5b5061019e6107df565b6040516101ab919061116e565b60405180910390f35b3480156101c057600080fd5b506101db60048036038101906101d69190610ebc565b6107ee565b6040516101e99291906110d0565b60405180910390f35b3480156101fe57600080fd5b506102076108e7565b604051610214919061116e565b60405180910390f35b34801561022957600080fd5b5061023261090f565b60405161023f919061116e565b60405180910390f35b34801561025457600080fd5b5061026f600480360381019061026a9190610efd565b610919565b60405161027c919061108c565b60405180910390f35b34801561029157600080fd5b5061029a610987565b6040516102a7919061116e565b60405180910390f35b60007f0000000000000000000000000000000000000000000000000000000000000000905090565b6000600260009054906101000a900460ff16905090565b7f000000000000000000000000000000000000000000000000000000000000000073ffffffffffffffffffffffffffffffffffffffff163373ffffffffffffffffffffffffffffffffffffffff16146103a157337f00000000000000000000000000000000000000000000000000000000000000006040517f1cf993f40000000000000000000000000000000000000000000000000000000081526004016103989291906110a7565b60405180910390fd5b6103ab8282610994565b5050565b7f0000000000000000000000000000000000000000000000000000000000000000341015610409576040517fbd4e069500000000000000000000000000000000000000000000000000000000815260040160405180910390fd5b60006001811115610443577f4e487b7100000000000000000000000000000000000000000000000000000000600052602160045260246000fd5b600260009054906101000a900460ff16600181111561048b577f4e487b7100000000000000000000000000000000000000000000000000000000600052602160045260246000fd5b146104c2576040517f1425571c00000000000000000000000000000000000000000000000000000000815260040160405180910390fd5b6001339080600181540180825580915050600190039060005260206000200160009091909190916101000a81548173ffffffffffffffffffffffffffffffffffffffff021916908373ffffffffffffffffffffffffffffffffffffffff1602179055503373ffffffffffffffffffffffffffffffffffffffff167f0805e1d667bddb8a95f0f09880cf94f403fb596ce79928d9f29b74203ba284d460405160405180910390a2565b6000610584604051806020016040528060008152506107ee565b509050806106195747600180549050600260009054906101000a900460ff1660018111156105db577f4e487b7100000000000000000000000000000000000000000000000000000000600052602160045260246000fd5b6040517f46d040fd00000000000000000000000000000000000000000000000000000000815260040161061093929190611189565b60405180910390fd5b6001600260006101000a81548160ff02191690836001811115610665577f4e487b7100000000000000000000000000000000000000000000000000000000600052602160045260246000fd5b021790555060007f000000000000000000000000000000000000000000000000000000000000000073ffffffffffffffffffffffffffffffffffffffff16635d3b1d307f00000000000000000000000000000000000000000000000000000000000000007f000000000000000000000000000000000000000000000000000000000000000060037f000000000000000000000000000000000000000000000000000000000000000060016040518663ffffffff1660e01b815260040161072f959493929190611100565b602060405180830381600087803b15801561074957600080fd5b505af115801561075d573d6000803e3d6000fd5b505050506040513d601f19601f820116820180604052508101906107819190610f26565b9050807fde6349b018d6c03d837b67d9a198a6ba4842546f2295fe963fae141e5dbaef8160405160405180910390a250505050565b60008060009054906101000a900473ffffffffffffffffffffffffffffffffffffffff16905090565b6000600163ffffffff16905090565b600060606000600260009054906101000a900460ff16600181111561083c577f4e487b7100000000000000000000000000000000000000000000000000000000600052602160045260246000fd5b60006001811115610876577f4e487b7100000000000000000000000000000000000000000000000000000000600052602160045260246000fd5b14905060008060018054905011905060007f0000000000000000000000000000000000000000000000000000000000000000600354426108b69190611269565b119050600080471190508380156108ca5750825b80156108d35750815b80156108dc5750805b955050505050915091565b60007f0000000000000000000000000000000000000000000000000000000000000000905090565b6000600354905090565b600060018281548110610955577f4e487b7100000000000000000000000000000000000000000000000000000000600052603260045260246000fd5b9060005260206000200160009054906101000a900473ffffffffffffffffffffffffffffffffffffffff169050919050565b6000600180549050905090565b6000600180549050826000815181106109d6577f4e487b7100000000000000000000000000000000000000000000000000000000600052603260045260246000fd5b60200260200101516109e891906113b9565b9050600060018281548110610a26577f4e487b7100000000000000000000000000000000000000000000000000000000600052603260045260246000fd5b9060005260206000200160009054906101000a900473ffffffffffffffffffffffffffffffffffffffff169050806000806101000a81548173ffffffffffffffffffffffffffffffffffffffff021916908373ffffffffffffffffffffffffffffffffffffffff160217905550600067ffffffffffffffff811115610ad4577f4e487b7100000000000000000000000000000000000000000000000000000000600052604160045260246000fd5b604051908082528060200260200182016040528015610b025781602001602082028036833780820191505090505b5060019080519060200190610b18929190610c5e565b50426003819055506000600260006101000a81548160ff02191690836001811115610b6c577f4e487b7100000000000000000000000000000000000000000000000000000000600052602160045260246000fd5b021790555060008173ffffffffffffffffffffffffffffffffffffffff1647604051610b9790611077565b60006040518083038185875af1925050503d8060008114610bd4576040519150601f19603f3d011682016040523d82523d6000602084013e610bd9565b606091505b5050905080610c14576040517fa1d04b3900000000000000000000000000000000000000000000000000000000815260040160405180910390fd5b8173ffffffffffffffffffffffffffffffffffffffff167f5b690ec4a06fe979403046eaeea5b3ce38524683c3001f662c8b5a829632f7df60405160405180910390a25050505050565b828054828255906000526020600020908101928215610cd7579160200282015b82811115610cd65782518260006101000a81548173ffffffffffffffffffffffffffffffffffffffff021916908373ffffffffffffffffffffffffffffffffffffffff16021790555091602001919060010190610c7e565b5b509050610ce49190610ce8565b5090565b5b80821115610d01576000816000905550600101610ce9565b5090565b6000610d18610d13846111e5565b6111c0565b90508083825260208201905082856020860282011115610d3757600080fd5b60005b85811015610d675781610d4d8882610e4d565b845260208401935060208301925050600181019050610d3a565b5050509392505050565b6000610d84610d7f84611211565b6111c0565b905082815260208101848484011115610d9c57600080fd5b610da7848285611346565b509392505050565b600082601f830112610dc057600080fd5b8135610dd0848260208601610d05565b91505092915050565b60008083601f840112610deb57600080fd5b8235905067ffffffffffffffff811115610e0457600080fd5b602083019150836001820283011115610e1c57600080fd5b9250929050565b600082601f830112610e3457600080fd5b8135610e44848260208601610d71565b91505092915050565b600081359050610e5c816114ce565b92915050565b600081519050610e71816114ce565b92915050565b60008060208385031215610e8a57600080fd5b600083013567ffffffffffffffff811115610ea457600080fd5b610eb085828601610dd9565b92509250509250929050565b600060208284031215610ece57600080fd5b600082013567ffffffffffffffff811115610ee857600080fd5b610ef484828501610e23565b91505092915050565b600060208284031215610f0f57600080fd5b6000610f1d84828501610e4d565b91505092915050565b600060208284031215610f3857600080fd5b6000610f4684828501610e62565b91505092915050565b60008060408385031215610f6257600080fd5b6000610f7085828601610e4d565b925050602083013567ffffffffffffffff811115610f8d57600080fd5b610f9985828601610daf565b9150509250929050565b610fac8161129d565b82525050565b610fbb816112af565b82525050565b610fca816112bb565b82525050565b6000610fdb82611242565b610fe5818561124d565b9350610ff5818560208601611355565b610ffe816114a6565b840191505092915050565b61101281611334565b82525050565b600061102560008361125e565b9150611030826114b7565b600082019050919050565b611044816112d8565b82525050565b61105381611306565b82525050565b61106281611310565b82525050565b61107181611320565b82525050565b600061108282611018565b9150819050919050565b60006020820190506110a16000830184610fa3565b92915050565b60006040820190506110bc6000830185610fa3565b6110c96020830184610fa3565b9392505050565b60006040820190506110e56000830185610fb2565b81810360208301526110f78184610fd0565b90509392505050565b600060a0820190506111156000830188610fc1565b6111226020830187611068565b61112f604083018661103b565b61113c6060830185611059565b6111496080830184611059565b9695505050505050565b60006020820190506111686000830184611009565b92915050565b6000602082019050611183600083018461104a565b92915050565b600060608201905061119e600083018661104a565b6111ab602083018561104a565b6111b8604083018461104a565b949350505050565b60006111ca6111db565b90506111d68282611388565b919050565b6000604051905090565b600067ffffffffffffffff821115611200576111ff611477565b5b602082029050602081019050919050565b600067ffffffffffffffff82111561122c5761122b611477565b5b611235826114a6565b9050602081019050919050565b600081519050919050565b600082825260208201905092915050565b600081905092915050565b600061127482611306565b915061127f83611306565b925082821015611292576112916113ea565b5b828203905092915050565b60006112a8826112e6565b9050919050565b60008115159050919050565b6000819050919050565b60008190506112d3826114ba565b919050565b600061ffff82169050919050565b600073ffffffffffffffffffffffffffffffffffffffff82169050919050565b6000819050919050565b600063ffffffff82169050919050565b600067ffffffffffffffff82169050919050565b600061133f826112c5565b9050919050565b82818337600083830152505050565b60005b83811015611373578082015181840152602081019050611358565b83811115611382576000848401525b50505050565b611391826114a6565b810181811067ffffffffffffffff821117156113b0576113af611477565b5b80604052505050565b60006113c482611306565b91506113cf83611306565b9250826113df576113de611419565b5b828206905092915050565b7f4e487b7100000000000000000000000000000000000000000000000000000000600052601160045260246000fd5b7f4e487b7100000000000000000000000000000000000000000000000000000000600052601260045260246000fd5b7f4e487b7100000000000000000000000000000000000000000000000000000000600052602160045260246000fd5b7f4e487b7100000000000000000000000000000000000000000000000000000000600052604160045260246000fd5b6000601f19601f8301169050919050565b50565b600281106114cb576114ca611448565b5b50565b6114d781611306565b81146114e257600080fd5b5056fea2646970667358221220814265f8ed74b0d547bed6ed28ee1d44c7a7207b5b64df88da9cee4f508d117a64736f6c63430008040033",
  "devdoc": {
    "kind": "dev",
    "methods": {},
    "version": 1
  },
  "userdoc": {
    "kind": "user",
    "methods": {},
    "version": 1
  },
  "storageLayout": {
    "storage": [
      {
        "astId": 882,
        "contract": "contracts/Raffle.sol:Raffle",
        "label": "s_recentWinner",
        "offset": 0,
        "slot": "0",
        "type": "t_address"
      },
      {
        "astId": 885,
        "contract": "contracts/Raffle.sol:Raffle",
        "label": "s_players",
        "offset": 0,
        "slot": "1",
        "type": "t_array(t_address_payable)dyn_storage"
      },
      {
        "astId": 888,
        "contract": "contracts/Raffle.sol:Raffle",
        "label": "s_raffleState",
        "offset": 0,
        "slot": "2",
        "type": "t_enum(RaffleState)865"
      },
      {
        "astId": 894,
        "contract": "contracts/Raffle.sol:Raffle",
        "label": "s_lastTimeStamp",
        "offset": 0,
        "slot": "3",
        "type": "t_uint256"
      }
    ],
    "types": {
      "t_address": {
        "encoding": "inplace",
        "label": "address",
        "numberOfBytes": "20"
      },
      "t_address_payable": {
        "encoding": "inplace",
        "label": "address payable",
        "numberOfBytes": "20"
      },
      "t_array(t_address_payable)dyn_storage": {
        "base": "t_address_payable",
        "encoding": "dynamic_array",
        "label": "address payable[]",
        "numberOfBytes": "32"
      },
      "t_enum(RaffleState)865": {
        "encoding": "inplace",
        "label": "enum Raffle.RaffleState",
        "numberOfBytes": "1"
      },
      "t_uint256": {
        "encoding": "inplace",
        "label": "uint256",
        "numberOfBytes": "32"
      }
    }
  }
}